{
  "contractName": "Marketplace",
  "abi": [
    {
      "constant": true,
      "inputs": [
        {
          "name": "",
          "type": "address"
        }
      ],
      "name": "admins",
      "outputs": [
        {
          "name": "",
          "type": "bool"
        }
      ],
      "payable": false,
      "stateMutability": "view",
      "type": "function"
    },
    {
      "constant": true,
      "inputs": [
        {
          "name": "",
          "type": "uint256"
        }
      ],
      "name": "AllstoreOwner",
      "outputs": [
        {
          "name": "",
          "type": "address"
        }
      ],
      "payable": false,
      "stateMutability": "view",
      "type": "function"
    },
    {
      "constant": true,
      "inputs": [
        {
          "name": "",
          "type": "uint256"
        }
      ],
      "name": "Alladmins",
      "outputs": [
        {
          "name": "",
          "type": "address"
        }
      ],
      "payable": false,
      "stateMutability": "view",
      "type": "function"
    },
    {
      "constant": true,
      "inputs": [],
      "name": "stopped",
      "outputs": [
        {
          "name": "",
          "type": "bool"
        }
      ],
      "payable": false,
      "stateMutability": "view",
      "type": "function"
    },
    {
      "constant": true,
      "inputs": [],
      "name": "owner",
      "outputs": [
        {
          "name": "",
          "type": "address"
        }
      ],
      "payable": false,
      "stateMutability": "view",
      "type": "function"
    },
    {
      "constant": false,
      "inputs": [
        {
          "name": "newOwner",
          "type": "address"
        }
      ],
      "name": "transferOwnership",
      "outputs": [],
      "payable": false,
      "stateMutability": "nonpayable",
      "type": "function"
    },
    {
      "inputs": [],
      "payable": false,
      "stateMutability": "nonpayable",
      "type": "constructor"
    },
    {
      "anonymous": false,
      "inputs": [
        {
          "indexed": true,
          "name": "previousOwner",
          "type": "address"
        },
        {
          "indexed": true,
          "name": "newOwner",
          "type": "address"
        }
      ],
      "name": "OwnershipTransferred",
      "type": "event"
    },
    {
      "constant": true,
      "inputs": [
        {
          "name": "_address",
          "type": "address"
        }
      ],
      "name": "CurrentAdmin",
      "outputs": [
        {
          "name": "",
          "type": "bool"
        }
      ],
      "payable": false,
      "stateMutability": "view",
      "type": "function"
    },
    {
      "constant": true,
      "inputs": [
        {
          "name": "_address",
          "type": "address"
        }
      ],
      "name": "CurrentStoreOwner",
      "outputs": [
        {
          "name": "",
          "type": "bool"
        }
      ],
      "payable": false,
      "stateMutability": "view",
      "type": "function"
    },
    {
      "constant": true,
      "inputs": [],
      "name": "getAdmins",
      "outputs": [
        {
          "name": "adminAddresses",
          "type": "address[]"
        }
      ],
      "payable": false,
      "stateMutability": "view",
      "type": "function"
    },
    {
      "constant": true,
      "inputs": [],
      "name": "getStoreOwners",
      "outputs": [
        {
          "name": "storeOwnerAddresses",
          "type": "address[]"
        }
      ],
      "payable": false,
      "stateMutability": "view",
      "type": "function"
    },
    {
      "constant": false,
      "inputs": [
        {
          "name": "_a",
          "type": "address"
        }
      ],
      "name": "addAdmin",
      "outputs": [
        {
          "name": "",
          "type": "bool"
        }
      ],
      "payable": false,
      "stateMutability": "nonpayable",
      "type": "function"
    },
    {
      "constant": false,
      "inputs": [
        {
          "name": "_a",
          "type": "address"
        }
      ],
      "name": "removeAdmin",
      "outputs": [
        {
          "name": "",
          "type": "bool"
        }
      ],
      "payable": false,
      "stateMutability": "nonpayable",
      "type": "function"
    },
    {
      "constant": false,
      "inputs": [
        {
          "name": "_a",
          "type": "address"
        }
      ],
      "name": "addStoreOwner",
      "outputs": [
        {
          "name": "",
          "type": "bool"
        }
      ],
      "payable": false,
      "stateMutability": "nonpayable",
      "type": "function"
    },
    {
      "constant": false,
      "inputs": [
        {
          "name": "_a",
          "type": "address"
        }
      ],
      "name": "removeStoreOwner",
      "outputs": [
        {
          "name": "",
          "type": "bool"
        }
      ],
      "payable": false,
      "stateMutability": "nonpayable",
      "type": "function"
    },
    {
      "constant": false,
      "inputs": [
        {
          "name": "_name",
          "type": "string"
        }
      ],
      "name": "AddStore",
      "outputs": [],
      "payable": false,
      "stateMutability": "nonpayable",
      "type": "function"
    },
    {
      "constant": true,
      "inputs": [
        {
          "name": "_storeId",
          "type": "uint256"
        }
      ],
      "name": "GetStore",
      "outputs": [
        {
          "name": "id",
          "type": "uint256"
        },
        {
          "name": "name",
          "type": "string"
        },
        {
          "name": "owner",
          "type": "address"
        }
      ],
      "payable": false,
      "stateMutability": "view",
      "type": "function"
    },
    {
      "constant": false,
      "inputs": [
        {
          "name": "_storeId",
          "type": "uint256"
        },
        {
          "name": "_newOwner",
          "type": "address"
        }
      ],
      "name": "ChangeStoreOwner",
      "outputs": [
        {
          "name": "changed",
          "type": "bool"
        }
      ],
      "payable": false,
      "stateMutability": "nonpayable",
      "type": "function"
    }
  ],
  "bytecode": "0x60806040526000600660006101000a81548160ff02191690831515021790555034801561002b57600080fd5b50336000806101000a81548173ffffffffffffffffffffffffffffffffffffffff021916908373ffffffffffffffffffffffffffffffffffffffff16021790555060018060003373ffffffffffffffffffffffffffffffffffffffff1673ffffffffffffffffffffffffffffffffffffffff16815260200190815260200160002060006101000a81548160ff021916908315150217905550600380548091906001016100d7919061013d565b503360036001600380549050038154811015156100f057fe5b9060005260206000200160006101000a81548173ffffffffffffffffffffffffffffffffffffffff021916908373ffffffffffffffffffffffffffffffffffffffff16021790555061018e565b815481835581811115610164578183600052602060002091820191016101639190610169565b5b505050565b61018b91905b8082111561018757600081600090555060010161016f565b5090565b90565b6112688061019d6000396000f3006080604052600436106100f1576000357c0100000000000000000000000000000000000000000000000000000000900463ffffffff1680631785f53c146100f657806331ae450b14610151578063429b62e5146101bd578063458432841461021857806352efe9cd146102f85780636174fdd11461036557806370480275146103c0578063740fa06b1461041b578063751847a81461048857806375f12b21146104ed5780638da5cb5b1461051c57806391f4245a146105735780639adeb5f1146105df578063aa963fd91461063a578063e2a27ad114610695578063e3b07fd1146106f0578063f2fde38b14610759575b600080fd5b34801561010257600080fd5b50610137600480360381019080803573ffffffffffffffffffffffffffffffffffffffff16906020019092919050505061079c565b604051808215151515815260200191505060405180910390f35b34801561015d57600080fd5b5061016661085d565b6040518080602001828103825283818151815260200191508051906020019060200280838360005b838110156101a957808201518184015260208101905061018e565b505050509050019250505060405180910390f35b3480156101c957600080fd5b506101fe600480360381019080803573ffffffffffffffffffffffffffffffffffffffff1690602001909291905050506108eb565b604051808215151515815260200191505060405180910390f35b34801561022457600080fd5b506102436004803603810190808035906020019092919050505061090b565b60405180848152602001806020018373ffffffffffffffffffffffffffffffffffffffff1673ffffffffffffffffffffffffffffffffffffffff168152602001828103825284818151815260200191508051906020019080838360005b838110156102bb5780820151818401526020810190506102a0565b50505050905090810190601f1680156102e85780820380516001836020036101000a031916815260200191505b5094505050505060405180910390f35b34801561030457600080fd5b5061032360048036038101908080359060200190929190505050610a1e565b604051808273ffffffffffffffffffffffffffffffffffffffff1673ffffffffffffffffffffffffffffffffffffffff16815260200191505060405180910390f35b34801561037157600080fd5b506103a6600480360381019080803573ffffffffffffffffffffffffffffffffffffffff169060200190929190505050610a5c565b604051808215151515815260200191505060405180910390f35b3480156103cc57600080fd5b50610401600480360381019080803573ffffffffffffffffffffffffffffffffffffffff169060200190929190505050610b1e565b604051808215151515815260200191505060405180910390f35b34801561042757600080fd5b5061044660048036038101908080359060200190929190505050610bdf565b604051808273ffffffffffffffffffffffffffffffffffffffff1673ffffffffffffffffffffffffffffffffffffffff16815260200191505060405180910390f35b34801561049457600080fd5b506104d360048036038101908080359060200190929190803573ffffffffffffffffffffffffffffffffffffffff169060200190929190505050610c1d565b604051808215151515815260200191505060405180910390f35b3480156104f957600080fd5b50610502610d0c565b604051808215151515815260200191505060405180910390f35b34801561052857600080fd5b50610531610d1f565b604051808273ffffffffffffffffffffffffffffffffffffffff1673ffffffffffffffffffffffffffffffffffffffff16815260200191505060405180910390f35b34801561057f57600080fd5b50610588610d44565b6040518080602001828103825283818151815260200191508051906020019060200280838360005b838110156105cb5780820151818401526020810190506105b0565b505050509050019250505060405180910390f35b3480156105eb57600080fd5b50610620600480360381019080803573ffffffffffffffffffffffffffffffffffffffff169060200190929190505050610dd2565b604051808215151515815260200191505060405180910390f35b34801561064657600080fd5b5061067b600480360381019080803573ffffffffffffffffffffffffffffffffffffffff169060200190929190505050610e94565b604051808215151515815260200191505060405180910390f35b3480156106a157600080fd5b506106d6600480360381019080803573ffffffffffffffffffffffffffffffffffffffff169060200190929190505050610eea565b604051808215151515815260200191505060405180910390f35b3480156106fc57600080fd5b50610757600480360381019080803590602001908201803590602001908080601f0160208091040260200160405190810160405280939291908181526020018383808284378201915050505050509192919290505050610f40565b005b34801561076557600080fd5b5061079a600480360381019080803573ffffffffffffffffffffffffffffffffffffffff169060200190929190505050611042565b005b600060011515600160003373ffffffffffffffffffffffffffffffffffffffff1673ffffffffffffffffffffffffffffffffffffffff16815260200190815260200160002060009054906101000a900460ff1615151415156107fd57600080fd5b60018060008473ffffffffffffffffffffffffffffffffffffffff1673ffffffffffffffffffffffffffffffffffffffff16815260200190815260200160002060006101000a81548160ff02191690831515021790555060019050919050565b606060038054806020026020016040519081016040528092919081815260200182805480156108e157602002820191906000526020600020905b8160009054906101000a900473ffffffffffffffffffffffffffffffffffffffff1673ffffffffffffffffffffffffffffffffffffffff1681526020019060010190808311610897575b5050505050905090565b60016020528060005260406000206000915054906101000a900460ff1681565b6000606060006009600085815260200190815260200160002060000154600960008681526020019081526020016000206001016009600087815260200190815260200160002060020160009054906101000a900473ffffffffffffffffffffffffffffffffffffffff16818054600181600116156101000203166002900480601f016020809104026020016040519081016040528092919081815260200182805460018160011615610100020316600290048015610a0a5780601f106109df57610100808354040283529160200191610a0a565b820191906000526020600020905b8154815290600101906020018083116109ed57829003601f168201915b505050505091509250925092509193909250565b600481815481101515610a2d57fe5b906000526020600020016000915054906101000a900473ffffffffffffffffffffffffffffffffffffffff1681565b600060011515600160003373ffffffffffffffffffffffffffffffffffffffff1673ffffffffffffffffffffffffffffffffffffffff16815260200190815260200160002060009054906101000a900460ff161515141515610abd57600080fd5b6001600260008473ffffffffffffffffffffffffffffffffffffffff1673ffffffffffffffffffffffffffffffffffffffff16815260200190815260200160002060006101000a81548160ff02191690831515021790555060019050919050565b600060011515600160003373ffffffffffffffffffffffffffffffffffffffff1673ffffffffffffffffffffffffffffffffffffffff16815260200190815260200160002060009054906101000a900460ff161515141515610b7f57600080fd5b60018060008473ffffffffffffffffffffffffffffffffffffffff1673ffffffffffffffffffffffffffffffffffffffff16815260200190815260200160002060006101000a81548160ff02191690831515021790555060019050919050565b600381815481101515610bee57fe5b906000526020600020016000915054906101000a900473ffffffffffffffffffffffffffffffffffffffff1681565b6000600660009054906101000a900460ff16151515610c3b57600080fd5b823373ffffffffffffffffffffffffffffffffffffffff166009600083815260200190815260200160002060020160009054906101000a900473ffffffffffffffffffffffffffffffffffffffff1673ffffffffffffffffffffffffffffffffffffffff16141515610cac57600080fd5b826009600086815260200190815260200160002060020160006101000a81548173ffffffffffffffffffffffffffffffffffffffff021916908373ffffffffffffffffffffffffffffffffffffffff160217905550600191505092915050565b600660009054906101000a900460ff1681565b6000809054906101000a900473ffffffffffffffffffffffffffffffffffffffff1681565b60606004805480602002602001604051908101604052809291908181526020018280548015610dc857602002820191906000526020600020905b8160009054906101000a900473ffffffffffffffffffffffffffffffffffffffff1673ffffffffffffffffffffffffffffffffffffffff1681526020019060010190808311610d7e575b5050505050905090565b600060011515600160003373ffffffffffffffffffffffffffffffffffffffff1673ffffffffffffffffffffffffffffffffffffffff16815260200190815260200160002060009054906101000a900460ff161515141515610e3357600080fd5b6001600260008473ffffffffffffffffffffffffffffffffffffffff1673ffffffffffffffffffffffffffffffffffffffff16815260200190815260200160002060006101000a81548160ff02191690831515021790555060019050919050565b6000600160008373ffffffffffffffffffffffffffffffffffffffff1673ffffffffffffffffffffffffffffffffffffffff16815260200190815260200160002060009054906101000a900460ff169050919050565b6000600260008373ffffffffffffffffffffffffffffffffffffffff1673ffffffffffffffffffffffffffffffffffffffff16815260200190815260200160002060009054906101000a900460ff169050919050565b600660009054906101000a900460ff16151515610f5c57600080fd5b60055460096000600554815260200190815260200160002060000181905550806009600060055481526020019081526020016000206001019080519060200190610fa7929190611197565b503360096000600554815260200190815260200160002060020160006101000a81548173ffffffffffffffffffffffffffffffffffffffff021916908373ffffffffffffffffffffffffffffffffffffffff1602179055506008600554908060018154018082558091505090600182039060005260206000200160009091929091909150555060056000815480929190600101919050555050565b6000809054906101000a900473ffffffffffffffffffffffffffffffffffffffff1673ffffffffffffffffffffffffffffffffffffffff163373ffffffffffffffffffffffffffffffffffffffff1614151561109d57600080fd5b600073ffffffffffffffffffffffffffffffffffffffff168173ffffffffffffffffffffffffffffffffffffffff16141515156110d957600080fd5b8073ffffffffffffffffffffffffffffffffffffffff166000809054906101000a900473ffffffffffffffffffffffffffffffffffffffff1673ffffffffffffffffffffffffffffffffffffffff167f8be0079c531659141344cd1fd0a4f28419497f9722a3daafe3b4186f6b6457e060405160405180910390a3806000806101000a81548173ffffffffffffffffffffffffffffffffffffffff021916908373ffffffffffffffffffffffffffffffffffffffff16021790555050565b828054600181600116156101000203166002900490600052602060002090601f016020900481019282601f106111d857805160ff1916838001178555611206565b82800160010185558215611206579182015b828111156112055782518255916020019190600101906111ea565b5b5090506112139190611217565b5090565b61123991905b8082111561123557600081600090555060010161121d565b5090565b905600a165627a7a72305820287ccb895ee0067c02d41317f1c71cb86ce2045b88bd87038b9e3366f6c278550029",
  "source": "pragma solidity ^0.4.22;\n\nimport \"./Ownable.sol\";\n\n/**\n * @title Marketplace\n * @dev The Marketplace contract provides an online marketplace\n * service of stores.\n */\n\ncontract Marketplace is Ownable {\n    \n    \n    \n    // Map addresses to admins\n    mapping (address => bool) public admins;\n\n    // Map addresses to store owners\n    mapping (address => bool) storeOwners;\n\n // Keep track of all admins that have ever existed\n    address[] public Alladmins;\n\n    // Keep track of all account readers that have ever existed\n    address[] public AllstoreOwner;\n\n    \n    modifier onlyAdmin {\n        require(admins[msg.sender] == true); _;\n    }\n    \n\n    uint private storeId;\n    \n     // For circuit breaker\n    bool public stopped = false;\n    \n\n    // Structs\n    struct Store {\n        uint storeID;\n        string name;\n        address owner;\n    }\n    \n    \n    mapping (address => Store) StoreOwners;\n    \n    uint[] private storeArray;\n    mapping (uint => Store) stores;\n    \n    // Keep track of all StoreOwners\n  //  address[] public AllstoreOwner;\n    \n\n    \n    modifier StoreOwnerOnly(uint _storeId) {\n        require(stores[_storeId].owner == msg.sender); \n        _;\n    }\n    \n  //  modifier onlyAdmin {\n   //     require(admins[msg.sender] == true); _;\n   \n    modifier stopInEmergency {require(!stopped); _;}\n    \n      // Construct the contract\n    constructor() public {\n\t\n        // Set the first admin to be the person creating the contract\n        admins[msg.sender] = true;\n        Alladmins.length++;\n        Alladmins[Alladmins.length - 1] = msg.sender;\n    }\n   \n   \n      /** @dev Function to get current admin address.\n      * @param _address Address of an Ethereum account.\n      */   \n      \n    function CurrentAdmin(address _address) view public returns (bool) {\n        return admins[_address];\n    }\n\n    // Function to make sure the the specified address is currently a store owner.\n     \n    function CurrentStoreOwner(address _address) view public returns (bool) {\n        return storeOwners[_address];\n    }\n\n\n   /** @dev Function to return an array of storeOwners.\n      * @return AllstoreOwner An array of storeOwners addresses.\n      */\n     \n    function getAdmins() public view returns(address[] adminAddresses) {\n        return Alladmins;\n    }\n    \n    // Function to return an array of store owners.\n      \n    function getStoreOwners() public view returns(address[] storeOwnerAddresses) {\n        return AllstoreOwner;\n    }\n    \n  //function to add an admin  \n  \n  function addAdmin(address _a)\n    public\n    onlyAdmin\n    returns(bool)\n    {\n        admins[_a] = true;\n        return true;\n    }\n    \n  function removeAdmin(address _a)\n    public\n    onlyAdmin\n    returns(bool)\n    {\n        admins[_a] = true;\n        return true;\n    }\n   \n   function addStoreOwner(address _a)\n    public\n    onlyAdmin\n    returns(bool)\n    {\n        storeOwners[_a] = true;\n        return true;\n    }\n    \n    function removeStoreOwner(address _a)\n    public\n    onlyAdmin\n    returns(bool)\n    {\n        storeOwners[_a] = true;\n        return true;\n    }\n    \n     /** @dev Function to allow a store owner to add a new Store.\n      * @param _name Name of the store.\n      */       \n    function AddStore(string _name) public stopInEmergency {\n        \n        stores[storeId].storeID = storeId;\n        stores[storeId].name = _name;\n        stores[storeId].owner = msg.sender;\n        \n        storeArray.push(storeId);\n        storeId++;\n       \n    }\n   \n      /** @dev Function to get a Store.\n      * @param _storeId The ID of the store.\n      */  \n    \n    function GetStore(uint _storeId) public view returns(uint id, string name, address owner) {\n        return(stores[_storeId].storeID, stores[_storeId].name, stores[_storeId].owner);\n    }\n    \n      /** @dev Function to allow a store owner to ChangeStoreOwner.\n      * @param _storeId The ID of the store.\n      */   \n    \n    function ChangeStoreOwner(uint _storeId, address _newOwner) public stopInEmergency StoreOwnerOnly(_storeId) returns(bool changed) {\n        stores[_storeId].owner = _newOwner;\n        return true;\n    }\n    \n}\n\n\n",
  "sourcePath": "/home/mzv7gd/marketplace/contracts/Marketplace.sol",
  "compiler": {
    "name": "solc",
    "version": "0.4.23+commit.124ca40d.Emscripten.clang"
  },
  "schemaVersion": "2.0.0",
  "updatedAt": "2018-08-27T21:41:31.136Z"
}