{
  "contractName": "Marketplace",
  "abi": [
    {
      "constant": true,
      "inputs": [
        {
          "name": "",
          "type": "address"
        }
      ],
      "name": "admins",
      "outputs": [
        {
          "name": "",
          "type": "bool"
        }
      ],
      "payable": false,
      "stateMutability": "view",
      "type": "function"
    },
    {
      "constant": true,
      "inputs": [
        {
          "name": "",
          "type": "uint256"
        }
      ],
      "name": "AllstoreOwner",
      "outputs": [
        {
          "name": "",
          "type": "address"
        }
      ],
      "payable": false,
      "stateMutability": "view",
      "type": "function"
    },
    {
      "constant": true,
      "inputs": [
        {
          "name": "",
          "type": "uint256"
        }
      ],
      "name": "Alladmins",
      "outputs": [
        {
          "name": "",
          "type": "address"
        }
      ],
      "payable": false,
      "stateMutability": "view",
      "type": "function"
    },
    {
      "constant": true,
      "inputs": [],
      "name": "stopped",
      "outputs": [
        {
          "name": "",
          "type": "bool"
        }
      ],
      "payable": false,
      "stateMutability": "view",
      "type": "function"
    },
    {
      "inputs": [],
      "payable": false,
      "stateMutability": "nonpayable",
      "type": "constructor"
    },
    {
      "constant": true,
      "inputs": [
        {
          "name": "_address",
          "type": "address"
        }
      ],
      "name": "CurrentAdmin",
      "outputs": [
        {
          "name": "",
          "type": "bool"
        }
      ],
      "payable": false,
      "stateMutability": "view",
      "type": "function"
    },
    {
      "constant": true,
      "inputs": [
        {
          "name": "_address",
          "type": "address"
        }
      ],
      "name": "CurrentStoreOwner",
      "outputs": [
        {
          "name": "",
          "type": "bool"
        }
      ],
      "payable": false,
      "stateMutability": "view",
      "type": "function"
    },
    {
      "constant": true,
      "inputs": [],
      "name": "getAdmins",
      "outputs": [
        {
          "name": "adminAddresses",
          "type": "address[]"
        }
      ],
      "payable": false,
      "stateMutability": "view",
      "type": "function"
    },
    {
      "constant": true,
      "inputs": [],
      "name": "getStoreOwners",
      "outputs": [
        {
          "name": "storeOwnerAddresses",
          "type": "address[]"
        }
      ],
      "payable": false,
      "stateMutability": "view",
      "type": "function"
    },
    {
      "constant": false,
      "inputs": [
        {
          "name": "_a",
          "type": "address"
        }
      ],
      "name": "addAdmin",
      "outputs": [
        {
          "name": "",
          "type": "bool"
        }
      ],
      "payable": false,
      "stateMutability": "nonpayable",
      "type": "function"
    },
    {
      "constant": false,
      "inputs": [
        {
          "name": "_a",
          "type": "address"
        }
      ],
      "name": "removeAdmin",
      "outputs": [
        {
          "name": "",
          "type": "bool"
        }
      ],
      "payable": false,
      "stateMutability": "nonpayable",
      "type": "function"
    },
    {
      "constant": false,
      "inputs": [
        {
          "name": "_a",
          "type": "address"
        }
      ],
      "name": "addStoreOwner",
      "outputs": [
        {
          "name": "",
          "type": "bool"
        }
      ],
      "payable": false,
      "stateMutability": "nonpayable",
      "type": "function"
    },
    {
      "constant": false,
      "inputs": [
        {
          "name": "_a",
          "type": "address"
        }
      ],
      "name": "removeStoreOwner",
      "outputs": [
        {
          "name": "",
          "type": "bool"
        }
      ],
      "payable": false,
      "stateMutability": "nonpayable",
      "type": "function"
    },
    {
      "constant": false,
      "inputs": [
        {
          "name": "_name",
          "type": "string"
        }
      ],
      "name": "AddStore",
      "outputs": [],
      "payable": false,
      "stateMutability": "nonpayable",
      "type": "function"
    },
    {
      "constant": true,
      "inputs": [
        {
          "name": "_storeId",
          "type": "uint256"
        }
      ],
      "name": "GetStore",
      "outputs": [
        {
          "name": "id",
          "type": "uint256"
        },
        {
          "name": "name",
          "type": "string"
        },
        {
          "name": "owner",
          "type": "address"
        }
      ],
      "payable": false,
      "stateMutability": "view",
      "type": "function"
    },
    {
      "constant": false,
      "inputs": [
        {
          "name": "_storeId",
          "type": "uint256"
        },
        {
          "name": "_newOwner",
          "type": "address"
        }
      ],
      "name": "ChangeStoreOwner",
      "outputs": [
        {
          "name": "changed",
          "type": "bool"
        }
      ],
      "payable": false,
      "stateMutability": "nonpayable",
      "type": "function"
    }
  ],
  "bytecode": "0x60806040526000600560006101000a81548160ff02191690831515021790555034801561002b57600080fd5b5060016000803373ffffffffffffffffffffffffffffffffffffffff1673ffffffffffffffffffffffffffffffffffffffff16815260200190815260200160002060006101000a81548160ff0219169083151502179055506002805480919060010161009791906100fd565b503360026001600280549050038154811015156100b057fe5b9060005260206000200160006101000a81548173ffffffffffffffffffffffffffffffffffffffff021916908373ffffffffffffffffffffffffffffffffffffffff16021790555061014e565b815481835581811115610124578183600052602060002091820191016101239190610129565b5b505050565b61014b91905b8082111561014757600081600090555060010161012f565b5090565b90565b6110378061015d6000396000f3006080604052600436106100db576000357c0100000000000000000000000000000000000000000000000000000000900463ffffffff1680631785f53c146100e057806331ae450b1461013b578063429b62e5146101a7578063458432841461020257806352efe9cd146102e25780636174fdd11461034f57806370480275146103aa578063740fa06b14610405578063751847a81461047257806375f12b21146104d757806391f4245a146105065780639adeb5f114610572578063aa963fd9146105cd578063e2a27ad114610628578063e3b07fd114610683575b600080fd5b3480156100ec57600080fd5b50610121600480360381019080803573ffffffffffffffffffffffffffffffffffffffff1690602001909291905050506106ec565b604051808215151515815260200191505060405180910390f35b34801561014757600080fd5b506101506107ac565b6040518080602001828103825283818151815260200191508051906020019060200280838360005b83811015610193578082015181840152602081019050610178565b505050509050019250505060405180910390f35b3480156101b357600080fd5b506101e8600480360381019080803573ffffffffffffffffffffffffffffffffffffffff16906020019092919050505061083a565b604051808215151515815260200191505060405180910390f35b34801561020e57600080fd5b5061022d6004803603810190808035906020019092919050505061085a565b60405180848152602001806020018373ffffffffffffffffffffffffffffffffffffffff1673ffffffffffffffffffffffffffffffffffffffff168152602001828103825284818151815260200191508051906020019080838360005b838110156102a557808201518184015260208101905061028a565b50505050905090810190601f1680156102d25780820380516001836020036101000a031916815260200191505b5094505050505060405180910390f35b3480156102ee57600080fd5b5061030d6004803603810190808035906020019092919050505061096d565b604051808273ffffffffffffffffffffffffffffffffffffffff1673ffffffffffffffffffffffffffffffffffffffff16815260200191505060405180910390f35b34801561035b57600080fd5b50610390600480360381019080803573ffffffffffffffffffffffffffffffffffffffff1690602001909291905050506109ab565b604051808215151515815260200191505060405180910390f35b3480156103b657600080fd5b506103eb600480360381019080803573ffffffffffffffffffffffffffffffffffffffff169060200190929190505050610a6b565b604051808215151515815260200191505060405180910390f35b34801561041157600080fd5b5061043060048036038101908080359060200190929190505050610b2b565b604051808273ffffffffffffffffffffffffffffffffffffffff1673ffffffffffffffffffffffffffffffffffffffff16815260200191505060405180910390f35b34801561047e57600080fd5b506104bd60048036038101908080359060200190929190803573ffffffffffffffffffffffffffffffffffffffff169060200190929190505050610b69565b604051808215151515815260200191505060405180910390f35b3480156104e357600080fd5b506104ec610c58565b604051808215151515815260200191505060405180910390f35b34801561051257600080fd5b5061051b610c6b565b6040518080602001828103825283818151815260200191508051906020019060200280838360005b8381101561055e578082015181840152602081019050610543565b505050509050019250505060405180910390f35b34801561057e57600080fd5b506105b3600480360381019080803573ffffffffffffffffffffffffffffffffffffffff169060200190929190505050610cf9565b604051808215151515815260200191505060405180910390f35b3480156105d957600080fd5b5061060e600480360381019080803573ffffffffffffffffffffffffffffffffffffffff169060200190929190505050610db9565b604051808215151515815260200191505060405180910390f35b34801561063457600080fd5b50610669600480360381019080803573ffffffffffffffffffffffffffffffffffffffff169060200190929190505050610e0e565b604051808215151515815260200191505060405180910390f35b34801561068f57600080fd5b506106ea600480360381019080803590602001908201803590602001908080601f0160208091040260200160405190810160405280939291908181526020018383808284378201915050505050509192919290505050610e64565b005b6000600115156000803373ffffffffffffffffffffffffffffffffffffffff1673ffffffffffffffffffffffffffffffffffffffff16815260200190815260200160002060009054906101000a900460ff16151514151561074c57600080fd5b60016000808473ffffffffffffffffffffffffffffffffffffffff1673ffffffffffffffffffffffffffffffffffffffff16815260200190815260200160002060006101000a81548160ff02191690831515021790555060019050919050565b6060600280548060200260200160405190810160405280929190818152602001828054801561083057602002820191906000526020600020905b8160009054906101000a900473ffffffffffffffffffffffffffffffffffffffff1673ffffffffffffffffffffffffffffffffffffffff16815260200190600101908083116107e6575b5050505050905090565b60006020528060005260406000206000915054906101000a900460ff1681565b6000606060006008600085815260200190815260200160002060000154600860008681526020019081526020016000206001016008600087815260200190815260200160002060020160009054906101000a900473ffffffffffffffffffffffffffffffffffffffff16818054600181600116156101000203166002900480601f0160208091040260200160405190810160405280929190818152602001828054600181600116156101000203166002900480156109595780601f1061092e57610100808354040283529160200191610959565b820191906000526020600020905b81548152906001019060200180831161093c57829003601f168201915b505050505091509250925092509193909250565b60038181548110151561097c57fe5b906000526020600020016000915054906101000a900473ffffffffffffffffffffffffffffffffffffffff1681565b6000600115156000803373ffffffffffffffffffffffffffffffffffffffff1673ffffffffffffffffffffffffffffffffffffffff16815260200190815260200160002060009054906101000a900460ff161515141515610a0b57600080fd5b60018060008473ffffffffffffffffffffffffffffffffffffffff1673ffffffffffffffffffffffffffffffffffffffff16815260200190815260200160002060006101000a81548160ff02191690831515021790555060019050919050565b6000600115156000803373ffffffffffffffffffffffffffffffffffffffff1673ffffffffffffffffffffffffffffffffffffffff16815260200190815260200160002060009054906101000a900460ff161515141515610acb57600080fd5b60016000808473ffffffffffffffffffffffffffffffffffffffff1673ffffffffffffffffffffffffffffffffffffffff16815260200190815260200160002060006101000a81548160ff02191690831515021790555060019050919050565b600281815481101515610b3a57fe5b906000526020600020016000915054906101000a900473ffffffffffffffffffffffffffffffffffffffff1681565b6000600560009054906101000a900460ff16151515610b8757600080fd5b823373ffffffffffffffffffffffffffffffffffffffff166008600083815260200190815260200160002060020160009054906101000a900473ffffffffffffffffffffffffffffffffffffffff1673ffffffffffffffffffffffffffffffffffffffff16141515610bf857600080fd5b826008600086815260200190815260200160002060020160006101000a81548173ffffffffffffffffffffffffffffffffffffffff021916908373ffffffffffffffffffffffffffffffffffffffff160217905550600191505092915050565b600560009054906101000a900460ff1681565b60606003805480602002602001604051908101604052809291908181526020018280548015610cef57602002820191906000526020600020905b8160009054906101000a900473ffffffffffffffffffffffffffffffffffffffff1673ffffffffffffffffffffffffffffffffffffffff1681526020019060010190808311610ca5575b5050505050905090565b6000600115156000803373ffffffffffffffffffffffffffffffffffffffff1673ffffffffffffffffffffffffffffffffffffffff16815260200190815260200160002060009054906101000a900460ff161515141515610d5957600080fd5b60018060008473ffffffffffffffffffffffffffffffffffffffff1673ffffffffffffffffffffffffffffffffffffffff16815260200190815260200160002060006101000a81548160ff02191690831515021790555060019050919050565b60008060008373ffffffffffffffffffffffffffffffffffffffff1673ffffffffffffffffffffffffffffffffffffffff16815260200190815260200160002060009054906101000a900460ff169050919050565b6000600160008373ffffffffffffffffffffffffffffffffffffffff1673ffffffffffffffffffffffffffffffffffffffff16815260200190815260200160002060009054906101000a900460ff169050919050565b600560009054906101000a900460ff16151515610e8057600080fd5b60045460086000600454815260200190815260200160002060000181905550806008600060045481526020019081526020016000206001019080519060200190610ecb929190610f66565b503360086000600454815260200190815260200160002060020160006101000a81548173ffffffffffffffffffffffffffffffffffffffff021916908373ffffffffffffffffffffffffffffffffffffffff1602179055506007600454908060018154018082558091505090600182039060005260206000200160009091929091909150555060046000815480929190600101919050555050565b828054600181600116156101000203166002900490600052602060002090601f016020900481019282601f10610fa757805160ff1916838001178555610fd5565b82800160010185558215610fd5579182015b82811115610fd4578251825591602001919060010190610fb9565b5b509050610fe29190610fe6565b5090565b61100891905b80821115611004576000816000905550600101610fec565b5090565b905600a165627a7a72305820d3c1edb4256c094bea38d3a4f5ae0cdf20fec40ff24a256b8ca34124ed44482d0029",
  "source": "pragma solidity ^0.4.22;\n\n\n// restrict function access so that only specific addresses are permitted to execute functions.\n\ncontract Marketplace {\n    \n    \n    \n    // Map addresses to admins\n    mapping (address => bool) public admins;\n\n    // Map addresses to store owners\n    mapping (address => bool) storeOwners;\n\n // Keep track of all admins that have ever existed\n    address[] public Alladmins;\n\n    // Keep track of all account readers that have ever existed\n    address[] public AllstoreOwner;\n\n    \n    modifier onlyAdmin {\n        require(admins[msg.sender] == true); _;\n    }\n    \n\n    uint private storeId;\n    \n     // For circuit breaker\n    bool public stopped = false;\n    \n\n    // Structs\n    struct Store {\n        uint storeID;\n        string name;\n        address owner;\n    }\n    \n    \n    mapping (address => Store) StoreOwners;\n    \n    uint[] private storeArray;\n    mapping (uint => Store) stores;\n    \n    // Keep track of all StoreOwners\n  //  address[] public AllstoreOwner;\n    \n\n    \n    modifier StoreOwnerOnly(uint _storeId) {\n        require(stores[_storeId].owner == msg.sender); \n        _;\n    }\n    \n  //  modifier onlyAdmin {\n   //     require(admins[msg.sender] == true); _;\n   \n    modifier stopInEmergency {require(!stopped); _;}\n    \n      // Construct the contract\n    constructor() public {\n\t\n        // Set the first admin to be the person creating the contract\n        admins[msg.sender] = true;\n        Alladmins.length++;\n        Alladmins[Alladmins.length - 1] = msg.sender;\n    }\n   \n   \n    // Function to make sure the specified address is currently an admin.\n      \n    function CurrentAdmin(address _address) view public returns (bool) {\n        return admins[_address];\n    }\n\n    // Function to make sure the the specified address is currently a store owner.\n     \n    function CurrentStoreOwner(address _address) view public returns (bool) {\n        return storeOwners[_address];\n    }\n\n\n   // Function to return an array of admins.\n     \n    function getAdmins() public view returns(address[] adminAddresses) {\n        return Alladmins;\n    }\n    \n    // Function to return an array of store owners.\n      \n    function getStoreOwners() public view returns(address[] storeOwnerAddresses) {\n        return AllstoreOwner;\n    }\n    \n  //function to add an admin  \n  \n  function addAdmin(address _a)\n    public\n    onlyAdmin\n    returns(bool)\n    {\n        admins[_a] = true;\n        return true;\n    }\n    \n  function removeAdmin(address _a)\n    public\n    onlyAdmin\n    returns(bool)\n    {\n        admins[_a] = true;\n        return true;\n    }\n   \n   function addStoreOwner(address _a)\n    public\n    onlyAdmin\n    returns(bool)\n    {\n        storeOwners[_a] = true;\n        return true;\n    }\n    \n    function removeStoreOwner(address _a)\n    public\n    onlyAdmin\n    returns(bool)\n    {\n        storeOwners[_a] = true;\n        return true;\n    }\n    \n    \n    // Function to allow a store owner to add a new Store    \n    function AddStore(string _name) public stopInEmergency {\n        \n        stores[storeId].storeID = storeId;\n        stores[storeId].name = _name;\n        stores[storeId].owner = msg.sender;\n        \n        storeArray.push(storeId);\n        storeId++;\n       \n    }\n    \n    function GetStore(uint _storeId) public view returns(uint id, string name, address owner) {\n        return(stores[_storeId].storeID, stores[_storeId].name, stores[_storeId].owner);\n    }\n    \n    function ChangeStoreOwner(uint _storeId, address _newOwner) public stopInEmergency StoreOwnerOnly(_storeId) returns(bool changed) {\n        stores[_storeId].owner = _newOwner;\n        return true;\n    }\n    \n}\n\n\n\n",
  "sourcePath": "/home/mzv7gd/marketplace/contracts/Marketplace.sol",
  "compiler": {
    "name": "solc",
    "version": "0.4.23+commit.124ca40d.Emscripten.clang"
  },
  "schemaVersion": "2.0.0",
  "updatedAt": "2018-08-20T17:42:21.071Z"
}